:040000008031202803
:100008007E1480312E00961E0A280B2813288C1E79
:100018000E280F2813288131D42180311E28161E5E
:10002800162817281E280C1E1A281B281E2882315D
:100038002E2280317E100900803122282030840051
:10004800003085002A3082314F2280317E10200016
:100058008131032920009A0199019601970198019D
:1000680007309500EF309100FF309200BF309300C9
:10007800FF309400FF303E00D9007F30CE00EF30D3
:10008800C3000730E400EF30B800DA01E501C4012D
:10009800B901CF01E601BA01C501D001DB01FF308A
:1000A800BB00FF30C600FF30D100FF30DC00073056
:1000B800E700FF30BC00FF30C700FF30D200FF3040
:1000C800DD000730E8004A12491648127930F0007E
:1000D8000230F1008231612280312E00161617306D
:1000E8003D00CB0010303E00A6000800FC007A0856
:1000F80086008701403F2000CA00413FCB004A08E4
:1001080084004B0885001200253A031D8C288D2891
:10011800A9287A0886008701013081074131031830
:10012800810AC001C1010310003003180130C80062
:10013800FF30C200FF30C3007A0886008701013013
:10014800810741310318810AC1287A08860087018E
:10015800403FCA00413FCB004A0884004B08850055
:100168000008CC00CD014C08F2004D08F3007C08D3
:10017800F4008031C2208031A028080074080319D7
:10018800C628C728CC287408031DCB28CC28D1281A
:10019800720882315522803102297408083E86008F
:1001A8008701160001040319DA28DB28F9287408E6
:1001B800083E86008701403FF500413FF60074087D
:1001C800023E86008701403FF700413FF80078086B
:1001D800803AF9007608803A7902031DF5287508F7
:1001E80077020318F828F92802297408023E8600C5
:1001F80087010130810741310318810A08008131E4
:10020800E72181318B170B178131F72181312000CC
:10021800E50028291616AC30D4008130D50082318B
:100228001622813108291612C030D4008130D50039
:1002380082311622813108299730D4008130D500C7
:1002480082311622813108296508D700D80158085B
:10025800003A0319302920295708483A03190E296A
:10026800043A03191729243A03190E29043A0319E1
:100278001729202980312028083022009F0090303B
:100288009D0024309E0019309B009C010030F00036
:100298000030F10082316D2281310030F0000030F1
:1002A800F1008231672281310030F0000030F10026
:1002B8008231732281312000C90108002000D10059
:1002C8004F08D3004E08D20071295230FA00500866
:1002D800FB00510880317A208131200052088400C7
:1002E800530885001200031D7A297B296929CE014C
:1002F800CF010800643020009F000B309D00DC30E7
:100308009C001D08E2001C08E1002E008C129616C5
:100318004730F0000230F10082315B2281319030A9
:1003280020009E00080020342D343E34203446340A
:10033800613469346C34203443346F346D346D3433
:1003480061346E3464342134213420340D34003463
:1003580020342D343E3420344C3445344434203455
:100368004F346E3421342134203420342034203466
:10037800203420340D34003420342D343E342034DD
:100388004C344534443420344F3466346634213494
:100398002134203420342034203420340D340034E7
:1003A8002E008C12200062089D0061089C005F08E6
:1003B80060040319E029E129E62960088A005F083A
:1003C8000A008131080082313722813180312E20A4
:1003D800813182313F22813181317E2181318131E8
:1003E8004021813108002E008F1EFB29FC29F729A6
:1003F8002000C90122009D1C022A032A052A1D1279
:100408001D161908080020006308640403190D2A42
:100418000E2A132A64088A0063080A0082313E0003
:100428004A12080056302000D6005508CF0054085C
:10043800CE005630D0000030813162218231080070
:10044800F0002E000F1E292A2A2A252A70082200C9
:100458009A0008003E004A1E322A332A362A823180
:100468000722823108002F0096019701980199010F
:100478009A019B010800603031008D008F019101C5
:1004880093019201080020004508C7004408C600EF
:10049800C401C5010800640080010131890B502A9C
:1004A8000034F10071088231242282310800710879
:1004B8002000E0007008DF00080071082000E40058
:1004C8007008E300080071082000DC007008DB00F9
:1004D800080071082000DE007008DD0008007108BF
:1004E8002000DA007008D900080001302000C40795
:0604F8000030C53D0800C4
:020000040001F9
:08000000FF3FFF3FFF3FFF3F00
:0A000E00EC3FFF3F9F3FFF3FFF3F25
:00000001FF
